:020000021000EC
:10F0000000800020616B0200416B0200416B020036
:10F0100001E01E5B00000000000000000000000096
:10F02000000000000000000000000000416B020032
:10F030000000000000000000416B0200416B020074
:10F04000416B0200416B0200416B0200416B020008
:10F05000416B020000000000416B0200416B0200A6
:10F06000416B0200416B0200416B0200416B0200E8
:10F07000416B0200416B0200416B0200416B0200D8
:10F08000416B0200416B0200416B0200416B0200C8
:10F09000416B02000D4B02004D350200416B020036
:10F0A000416B0200416B0200000000000000000004
:10F0B0000000000000000000000000000000000050
:10F0C00010B5064C2378002B07D1054B002B02D03E
:10F0D000044800E000BF0123237010BDE42100209C
:10F0E0000000000094B9020008B5084B002B03D0C3
:10F0F0000748084900E000BF07480368002B03D019
:10F10000064B002B00D0984708BDC0460000000009
:10F1100094B90200E821002094B902000000000028
:10F12000054B1A68002A01D1044A1A601A6810189F
:10F130001860101C7047C04600220020282D0020B7
:10F1400001204042704780239B0100204B607047A4
:10F1500001207047002070470020704770B50E1CDA
:10F16000151C0C1CA31BAB4204DA207802F010FE25
:10F170000134F7E7E843C017284070BD011C08B50B
:10F1800001480BF0EBF8FEE714B1020070470120D4
:10F190004042704738B50025041C05704570456035
:10F1A000058185720B4907220B300BF02AF8231CCE
:10F1B0002833221C6561A561E561256265622932FB
:10F1C0001D70022313705370231C2B331D70201CE1
:10F1D00038BDC0462DB1020008B5522000F076FDC2
:10F1E00001235840C0B208BD08B5012300225B428C
:10F1F00003624270111CFFF7EFFF08BD38B50C4BDE
:10F20000021C041C1B8808325220062100F0C4FD99
:10F21000237AB22B05D00748074907F03FFB0020AF
:10F2200005E001252570201CFFF7DEFF281C38BDF6
:10F23000002000209C25002067B1020010B5054B7E
:10F24000021C041C08321B88522000F0A5FD207A05
:10F2500010BDC0460020002010B50521041CFFF79A
:10F26000EDFF072318400123042801D8024B1B5C43
:10F270002B34181C237010BD8BB1020010B5012275
:10F28000041C042901D8054B5A5C0521201CFFF7FA
:10F29000A3FF201CFFF7E0FF10BDC04634B1020001
:10F2A00013B50A4A031C1288041C00920833032277
:10F2B000522000F013FD607A237AA27A00021843EC
:10F2C000072313401B04184316BDC046002000202E
:10F2D00010B50D21041CFFF7E3FF206210BD38B507
:10F2E0004578041C002D10D007F04AF96368984255
:10F2F0000BD9201CFFF7ECFF07F042F9231C2A333F
:10F300001B78E318DB7AC0186060281C38BD000049
:10F3100008B5031C29331A782023052A01D8084B85
:10F320009B5C1A01031C2A331978D2B202230629E6
:10F3300001D8044B5B5C1A430421FFF74DFF08BD65
:10F3400085B1020039B102004807C00F704710B5FF
:10F350000021041CFFF772FF011C201CFFF7F4FFC3
:10F360002834207010BD10B54A1E53425A419200F5
:10F370000223041C1A430021FFF72EFF201CFFF775
:10F38000E6FF10BD08B50021FFF7EDFF08BD7023B3
:10F390001940202912D006D8002081420FD0012028
:10F3A00010290CD00AE0402906D00520502906D0AB
:10F3B0000320302902D102E0042000E0022070473F
:10F3C00038B50421041CFFF739FF051C291C201C3B
:10F3D000FFF7DDFF231C2933187007231D40024B64
:10F3E0002A345B5D237038BD7DB1020038B5051C41
:10F3F0002A352970041CFFF78BFF201CFFF7E0FF64
:10F40000287838BD38B54578041C002D11D1FFF798
:10F41000B9FF291C201CFFF731FF0221201CFFF738
:10F42000E5FF0123291C6370201C0222FFF7D4FE94
:10F43000051C281C38BD00230360436000230372B1
:10F4400043727047F8B50A4C0F1C201C5D211D1C2F
:10F45000161C02F019FB391C201C02F0BFF8311CED
:10F460002A1C201C02F06AF8201C02F034FBF8BDB4
:10F470000825002073B5437A051C0124002B01D018
:10F48000201C10E06E46F47107361321321C231C39
:10F49000FFF7D8FFCA233370281C1421321C231C09
:10F4A000FFF7D0FF6C7276BD13B56A4607320123B1
:10F4B0001221041C1370FFF7C5FF024B23600023C9
:10F4C000637216BD00FF7F47F7B5144D0C1C281C56
:10F4D0005D2101921E1C02F0D7FA211C281C02F0AB
:10F4E0007DF8281C002102F0D9FA041E14D1321C28
:10F4F000281C5D21012302F0B6FA261C281C02F00C
:10F5000047F8002808D0019B281C9F1902F047F8F3
:10F5100001363870F6B2F1E7201CFEBD0825002048
:10F5200073B56E4607361021321C0123041CFFF709
:10F53000CBFF051E02D00948094904E03378322B7D
:10F5400004D00648074907F09FF905E0012323721C
:10F55000201CFFF7A9FF6572281C76BD9C250020A2
:10F5600090B10200A8B1020010B50A1C05231A21AF
:10F57000FFF7AAFF041E03D00248034907F084F9ED
:10F58000201C10BD9C250020BEB1020037B5447A76
:10F59000051C002C01D1002415E06946FFF7E4FFAB
:10F5A0000028F8D16A465078137800021B041843EB
:10F5B000937818438008EED008F0D6FAE821890540
:10F5C00008F04CF92860201C3EBD0378DA07980744
:10F5D000D20FC00FD2B2DB069200C0005B0F104307
:10F5E0001B011843704710B500230370437043801C
:10F5F00083800023041C8360C175081C012107F06F
:10F60000A3F8E07D012107F0D9F8201C10BD00000F
:10F61000F0B585B0029103920193061C0021C07DD4
:10F6200007F0CCF80024019B9C422DD2019B1A1BB1
:10F63000131CD2B2202A00D92023164DDBB2317B15
:10F64000281C009302F016FA029A2B681119C9B20D
:10F650001B68281C9847281C02F03DFA317B281CA7
:10F66000009A02F0F4F90027009AE519EDB29742EA
:10F6700007DA039B07485D1901F091FF01372870F5
:10F68000F2E71419E4B2CEE7F07D012107F096F815
:10F6900005B0F0BD0825002073B501AC221C062181
:10F6A0000423061CFFF7B4FFA078E3780002184398
:10F6B000214B2178584363780902194307F0E2FD92
:10F6C0000AF054F8134B124A08F0BAFD07F02CFB6D
:10F6D000114A124B08F0B4FD114A124B08F094FA8B
:10F6E000021C0B1C1048114908F0AAFD104A114BCE
:10F6F00009F0A0FC041C30690D1C0AF06BF8021C18
:10F700000B1C201C291C09F095FC7CBDC046C04682
:10F7100000000000006AF840000000000068AA40F5
:10F7200083DBB5DCE1796B3F000000000000F03FB7
:10F730006666666666127140A0860100C046C046D5
:10F7400013B56C460734221C0123FFF761FF2078B4
:10F7500016BD70B50021041CFFF7F2FF257D0123C3
:10F76000011C021C19409D43C01018400D4302218A
:10F7700046008D43354311110426D209B543194083
:10F780001340DA0089002B1C0B4308218B431343E1
:10F79000237570BD70B50021041CFFF7D1FF257DD6
:10F7A0000123021C9D431840D6101E400543022130
:10F7B0009E408D43354311110426D209B5431940AB
:10F7C0001340DA0089002B1C0B4308218B431343A1
:10F7D000237570BD37B5041CFFF7BBFF0025A84299
:10F7E0001AD0201CFFF758FF0AF046F80221A0604B
:10F7F0006A460823201CFFF70BFF69460B784A78FE
:10F800001B021343A3808B78CA781B0213436380C7
:10F81000237DDA0700D54D79281C3EBD08B5437815
:10F82000002B05D0FFF7D6FF031C581E8341DBB227
:10F83000181C08BDF7B50193051C0F1CC07D0021E5
:10F84000161C06F0BBFF0B4C297B201C02F012F9A2
:10F85000391C201C01F0C2FE311C019A201C01F051
:10F860006DFE201C02F037F9E87D012106F0A6FFAD
:10F87000F7BDC0460825002037B50424051C221C0E
:10F8800001A805490AF0BDFC281CFF2101AA231C80
:10F89000FFF7D0FF37BDC046E8B1020007B56B46A1
:10F8A000DA7107331A1C0123FFF7C4FF07BD0723D2
:10F8B00019408B00417D1C229143194310B5041C53
:10F8C00041751530FFF781FE0121021C201CFFF756
:10F8D000E5FF10BD10B50121041CFFF7E8FF01236F
:10F8E000637010BD10B50321041CFFF7E0FF012376
:10F8F000637010BD10B54378041C0120002B07D1A4
:10F90000201C012900D00321FFF7D1FF01236370E0
:10F9100010BD10B501235B42438083800021041C8D
:10F92000FFF7C5FF0023637010BD437D02229343A0
:10F9300010B54375041C1530FFF747FE0121021C6A
:10F94000201CFFF7ABFF10BD38B50173041CFFF797
:10F9500093FF642006F018FE0022F421131C201CE3
:10F96000FFF768FF642006F00FFE201CFFF712FF70
:10F970000025A8420AD1237D1A0707D5201C01259E
:10F98000FFF7D3FF2570201CFFF7C3FF281C38BDED
:10F9900010B5427A041C002A01D0012005E0432062
:10F9A000102100F093F90123637210BD10B51021EE
:10F9B000041C0122432000F089F9034B2360FF233C
:10F9C00063600023637210BD00007F4310B51021F7
:10F9D0008022432000F07AF9041C022006F0D4FDB6
:10F9E000201C10BD10B50A1C4320102100F06EF938
:10F9F000041C022006F0C8FD201C10BDF0B50F1C31
:10FA000085B00021041C161CFFF7ECFF002805D16F
:10FA1000201C0121FFF7E6FF00232FE0002F10D06C
:10FA2000184B02AD1B8843200093002102222B1C9F
:10FA300000F054F90130EBD06B782A781B02D31810
:10FA40003B80002E07D1201C0121FFF7CBFF0123B3
:10FA50000028DDD012E00B4B02AD1B884320009341
:10FA6000042108222B1C00F039F90028D0D1011CF8
:10FA70006B5C735401310829FAD1E4E7181C05B016
:10FA8000F0BDC0460020002073B50026C660041CEF
:10FA9000FFF79CFFB04201D1002013E06D46063510
:10FAA000201C291C321CFFF7A9FF0028F4D02A884B
:10FAB00084239B009A42EFD101252572201CFFF779
:10FAC00075FF281C76BD07B5002201AB1A70032212
:10FAD0005A7043202121022200F0D6F80EBD00000A
:10FAE0007FB5114B02AC1B880E1C151C00934320E4
:10FAF00030210622231C00F0F1F8013011D0A37848
:10FB000062781B029B1822781B029B183360637972
:10FB100022791B029B18E2781B029B182B600120A4
:10FB200000E0002004B070BD0020002088B270B555
:10FB30001060CA037F204E0C120A802489250640DB
:10FB40000243240412202D040138002805D0144259
:10FB500000D06A4064086D08F6E7B24201D0032283
:10FB600004E0CA0301D4022200E001221A6070BD41
:10FB7000104B10B5541E9C4206D904210E48FF318B
:10FB80000E4A0F4B0AF0C8FAC36889B2C81A50432C
:10FB9000002801DD203003E02038C417A40E20180F
:10FBA0008411084864214243101C323007F0B8FB2E
:10FBB000201A10BDFF030000FBB10200CEB202000C
:10FBC00053B20200B36A000008B5094B501E9842B8
:10FBD00006D922210748FF31074A084B0AF09CFA50
:10FBE00088B25043002802D00130FF30401208BDD7
:10FBF000FF030000FBB10200F2B2020053B20200A8
:10FC000037B5457A041C002D01D1002534E00423CA
:10FC10004361C361FFF757FF0028F6D0822006F04A
:10FC2000B3FC201C694601AAFFF75AFF0028ECD05C
:10FC3000221C231C10321433201C0099FFF776FF7E
:10FC4000221C231C1C331832201C0199FFF76EFF65
:10FC50000A222169201CFFF78BFF09F049FD094B9F
:10FC6000074A08F0EDFA09F007FEA16920600122B9
:10FC7000201CFFF7A9FF6060281C3EBDC046C0469F
:10FC80000000000000002440F8B50F4D84460C1C15
:10FC9000281C61461E1C171C01F0ECFE211C281CB0
:10FCA00001F09CFC341CA31BDBB2BB4205D22178C3
:10FCB000281C01F093FC0134F5E7281C01F00BFF30
:10FCC00043425841C0B2F8BD0825002007B56B4635
:10FCD00007331A700122FFF7D7FF0EBDF0B587B0CA
:10FCE00005930CAB1B8802900491151C019306F040
:10FCF00047FC002703903C1CAF4229D2254E0299B5
:10FD0000301C01F0B7FE0499301C01F067FC301C78
:10FD100001F0E1FE301C029901F0ACFEEA1B202A42
:10FD200000DD2022D2B2301C029901F090FE194E63
:10FD3000301C01F02DFC00281BD0019B002B1FD094
:10FD400006F01EFC039BC01A019B984218D310E0DA
:10FD5000019B002B0AD006F013FC039BC01A019BE9
:10FD6000984203D363B2AB4200DAFF2460B207B01B
:10FD7000F0BD2B1C202D00D92023FB18DFB2BBE7E0
:10FD8000059B66B203489E1901F009FC01343070EE
:10FD9000E4B2CCE70825002013B5141C009301221F
:10FDA000231CFFF79BFF16BD10B5054B021C041C5E
:10FDB0000E321B8800216820FFF7EEFFA07B10BDEC
:10FDC00000200020427B0123002A01D0181C00E003
:10FDD000437370470023C218FF21013391730E2B28
:10FDE000F9D1002343737047F8B5041CFFF7DCFF1B
:10FDF0000025EA2800D07EE02A1C06216820FFF7B3
:10FE000065FF642006F0C0FB062101226820FFF791
:10FE10005DFFC82006F0B8FB7F2102226820FFF7B3
:10FE200055FF291C04226820FFF750FF11210422EE
:10FE30006820FFF74BFF261C304A0E36138801213D
:10FE4000321C6820FFF7A8FFA77B03233A1C9A43C4
:10FE500001216820FFF73AFF18233A1C9A43012139
:10FE60006820FFF733FF227F0121D2001743FAB247
:10FE70006820FFF72BFF214A142113886820321CC9
:10FE8000FFF78AFFA77B18233A1C9A4314216820A6
:10FE9000FFF71CFF627F1421D2001743FAB26820DB
:10FEA000FFF714FF154A152113886820321CFFF74D
:10FEB00073FFA77B0F263A1CB24315216820FFF77A
:10FEC00005FF03223A4315216820FFF7FFFE2A1C95
:10FED0007F216820FFF7FAFE311C22226820FFF7FD
:10FEE000F5FE0125682010210122FFF7EFFE2573A2
:10FEF000201CFFF76FFF281CF8BDC0460020002023
:10FF000037B5457B041C002D01D100252DE0184B91
:10FF100068201B882D210093231C0C220E33FFF731
:10FF2000DDFE0C28F1D1A37BE27B1B0213435B4275
:10FF30002380237C627C1B0213435B426380A37C8F
:10FF4000E27C1B021343A380237D627D1B021343CB
:10FF50005B42E380A37DE27D1B0213435B4223816E
:10FF6000237E627E1B0213436381281C3EBDC04674
:10FF7000002000200E30704770470000F8B50C4C90
:10FF80000F1C201C3621161C1D1C01F07DFD391C88
:10FF9000201C01F023FB311C201C01F01FFB291C3D
:10FFA000201C01F01BFB201C01F095FDF8BDC04694
:10FFB0000825002008B5FE2100225423FFF7DEFFAC
:10FFC00008BD10B5437B041C002B01D0012005E0C7
:10FFD00006212022FFF7D2FF0123637310BD10B565
:10FFE000062120220123041CFFF7C8FFFF232370F2
:10FFF0006370A370E3700023637310BD38B50125EF
:020000022000DC
:100000000573041CFFF7D6FF022006F0BDFA201C82
:10001000FFF7E5FF281C38BDF8B50E4C0F1C201C5F
:1000200036211D1C161C01F02FFD391C201C01F06F
:10003000D5FA201C01F04FFD36210222201C01F0D0
:100040000BFD201C01F0ABFA3070201C01F0A7FA68
:100050002870F8BD08250020F0B585B000246F4653
:100060006E46BC73F4730E370F363A1C331C0221F4
:10007000051CFFF7D1FF3B7830782B7068701B01AF
:10008000001118430A4B211C00930A4A231C06F056
:1000900043FD09F02DFB054B034A08F0D1F809F0A8
:1000A000EBFB05B0F0BDC046000000000088C34077
:1000B00050C30000FF0F000073B500236E466D466D
:1000C000B371EB7106360735321C2B1C0421041C5E
:1000D000FFF7A2FF30782D78A070E57007F0E8FCFC
:1000E000041C281C09F004FB064B054A08F012FD0D
:1000F00009F0C2FB011C201C07F04CFA76BDC0467B
:10010000000000000000703F10B5041C407B002878
:1001100007D0201CFFF7A0FF6060201CFFF7CCFF7A
:10012000A06010BD312370B5037180230025DB0072
:10013000041C4381058185818573C5730174081C86
:100140000121161C06F000FB291C207C06F036FB62
:10015000301C6674291C06F0F7FA201C70BD38B5F7
:10016000C57B041C002D01D001200BE006F008FA2D
:100170002379A581C01820600121207C06F01EFB98
:100180000123E37338BD10B501235B42041C838156
:100190000021007C06F012FB0023E37310BD10B5B4
:1001A00001248473FFF7EFFF201C10BD10B5041C61
:1001B000C07B002824D006F0E3F92368984211D2CE
:1001C000607C06F007FA0F4B80B2E080984217D8A7
:1001D0002389834201D2208112E0638983420FD9AF
:1001E00060810DE022896389D31AA38100232381D2
:1001F0008023DB00638106F0C3F92379C0182060F7
:1002000010BDC046FF03000080898023DB009842B8
:1002100000D901487047C046FFFF000008B50368D9
:10022000C9B21B68984708BD70B50025041C8570CD
:10023000C570057145718171081C0121161C06F0FD
:1002400083FAA079291C06F0B9FAA660201C70BDBB
:10025000C378002B01D10123C370704710B5012171
:10026000041C807906F0AAFA0123237110BD012332
:1002700003737047F8B50E4C0F1C201C4521161C4B
:100280001D1C01F001FC201C1021FFF7C7FF391CC9
:10029000201CFFF7C3FF311C201CFFF7BFFF291CE8
:1002A000201CFFF7BBFF201C01F015FCF8BDC04669
:1002B0000825002070B5094C061C0D1C201C45218A
:1002C00001F0E2FB311C201C01F088F9291C201CE4
:1002D00001F084F9201C01F0FEFB70BD0825002010
:1002E00008B5CB1E081C072B02D8111CFFF7E2FF34
:1002F00008BD000038B50F4C0D1C201C452101F035
:10030000C3FB291C201C01F069F9201C01F0E3FB50
:1003100045210122201C01F09FFB201C01F03FF928
:10032000051C201C01F0D7FB012006F02DF9E8B2D6
:1003300038BDC04608250020F7B50C1C0021061C5E
:10034000151CFFF7D7FF01210190301CFFF7D2FFEA
:100350000221071C301CFFF7CDFF022D18D0032D02
:1003600009D0042D17D0052D08D0062D16D0072D45
:1003700007D0002513E00025012204E0012500221A
:1003800001E001252A1C0121019BA14019430BE03A
:100390000025012204E00125002201E001252A1C9C
:1003A00001230199A3409943C9B20123002A03D034
:1003B0001A1CA240174301E0A3409F430123FAB255
:1003C000A340002D01D0184300E09843C3B2301C75
:1003D000FFF750FFF7BD38B545790023041CC37003
:1003E0009D4212D1291C2A1CFFF7A6FF201C0121C7
:1003F0002A1CFFF7A1FF201C02212A1CFFF79CFFEB
:10040000A079291C06F0DAF9257138BD10B5012450
:100410008470FFF7E0FF201C10BD002110B50A1CFE
:10042000041CFFF789FF201C01210022FFF784FF35
:10043000201C00220221FFF77FFFA079002106F097
:10044000BDF90023237110BD10B50549041C0548F2
:1004500006F024FA201CFFF7E0FF0023637110BDB3
:100460001AB302009C250020F0B589B003930EABAF
:100470001B78079104930FAB1B780321059310ABF6
:100480001B780292061C0693FFF734FF04210190AB
:10049000301CFFF72FFF0521071C301CFFF72AFF38
:1004A0000621051C301CFFF725FF0721041C301C0A
:1004B000FFF720FF079A002A0ED1019A0F239A43D3
:1004C000D2B201923A1C9A439D439C439843D7B2BF
:1004D000EDB2E4B2C0B21EE0079B012B1BD1019A22
:1004E0000F231A400192029A1F401D401C401840E1
:1004F0001301039ADBB202931301049ADBB2039354
:100500001301059ADBB204931301DBB20593069B3A
:100510001E01F6B20696039A049B1743059A0299A8
:100520001D431443069B019A18431143C6B2FFB200
:10053000C9B20320FFF7BEFEEDB2391C0420FFF75D
:10054000B9FEE4B2291C0520FFF7B4FE211C0620E9
:10055000FFF7B0FE0720311CFFF7ACFE09B0F0BD7D
:10056000F8B50F1C111C061C151C1C1CFFF7C2FE45
:10057000002F02D1F023184005E0012F03D10F23F3
:1005800024011840E4B20443291C301CE2B2FFF7F6
:10059000A7FEF8BD30B51D4985B0051C1C480024D8
:1005A00006F07CF9281CFFF759FE281C211C221C90
:1005B0000094019402940F23FFF756FF281C211C7E
:1005C00008220323FFF7CCFF281C221C009401946F
:1005D000029401210F23FFF747FF01210B1C281C68
:1005E0000822FFF7BDFF281C211C0622FFF7A4FEEE
:1005F000281C01210722FFF79FFE281C0221221C34
:10060000FFF79AFE01236B7105B030BD28B30200DD
:100610009C2500207FB5C378041C002B79D043793A
:10062000002B07D1806806F0E5F8002802D1201CD5
:10063000FFF7B0FF267B012E2ED12379002B02D1AC
:10064000201CFFF70BFE00250F230193201C291C03
:100650002A1C082300950295FFF706FF0123201CA2
:10066000291C0822FFF77CFF201C291C0622FFF70B
:1006700063FE201C01210622FFF75EFE201C0221E2
:100680000622FFF759FE0223237305F079FF80232A
:10069000DB00C01820613CE0022E3AD105F070FF6B
:1006A0002369984235D9637900252573AB422DD053
:1006B000201C291C2A1C0095019502950F23FFF789
:1006C000D3FE201C291C08220323FFF749FF201C0E
:1006D0002A1C00950195029501210F23FFF7C4FE06
:1006E00001210B1C201C0822FFF73AFF201C291CAB
:1006F0000622FFF721FE201C01210722FFF71CFE26
:10070000201C311C2A1CFFF717FE02E0201CFFF7FB
:1007100084FE7FBDF0B581239B00C35C87B0041CC1
:10072000002B47D0244BC35C002B43D0234BC25C2F
:10073000002A3FD082239B00C35C002B3AD0204A82
:10074000002580268554291C142201A8B60009F032
:1007500061FDA25D142A16D91A4F1B4EE15DA25D00
:100760000131FF31611801A8142A0FD9142209F0B0
:1007700048FDE35D14221433E355A35D143BA355F8
:10078000124BE2540CE0611CFF3101A809F039FD65
:10079000A35D0E4AA354094B094AE5540123A3540F
:1007A0000A4B0B48E25C01A900F09AFE002801D137
:1007B000024AA05407B0F0BD050200000602000086
:1007C0000702000001020000020200000302000014
:1007D0002C24002080239B00C35CF0B59B18FF2BCA
:1007E0000FD80B1C5C1AE4B294420AD28024A400F5
:1007F000055D1F784619FF360135777001330555C1
:10080000F0E7F0BD80229200835C10B5FF2B04D08E
:10081000C418FF3401336170835410BD80229200EC
:10082000835C70B59C1CFF2C09D8C5180133DBB262
:10083000C318FF350E0AFF336E705970845470BDB3
:10084000F0B580229200835C85B00233061CFF2B3A
:1008500025D8081C08F0BEFF02AA06F025FA80235E
:100860009B00F35C041C0D1C02980399F71801937C
:1008700006F03AFE0D4B0C4AFF377870291C201CFD
:1008800008F048F908F000FF019F019B0137FFB213
:10089000F7198022FF37023392007870B35405B005
:1008A000F0BDC046C046C0460000000000005940F0
:1008B000F0B580229200835C85B00333061CFF2BC9
:1008C0002AD8081C08F086FF02AA06F0EDF980235A
:1008D0009B00041C0D1C02980399F75C08F0D4FEE1
:1008E000F3190212FF335A707B1CDBB2F318FF338B
:1008F0005870BB1CDBB2F318FF330193201C094B6B
:10090000074A291C08F006F908F0BEFE019A802368
:1009100003379B005070F75405B0F0BDC046C04689
:100920000000000000005940094A00238354094A8E
:10093000FF218354084A8354021CFF325370D37042
:1009400002231371802391709B000422C2547047CC
:100950000302000002020000010200008022920057
:10096000835C10B5C118FF3100244C70591CC9B20A
:1009700041180233DBB2FF24FF314C70835402195B
:10098000D370054A01218154044A835483239B0078
:10099000C2585218C25010BD0602000002020000E8
:1009A000F7B582239B00C35C051C041CE835002BB3
:1009B00064D005F0E5FD271CF8373A6890425AD913
:1009C00005F0DEFD86239B00E050201CFEF787FC2F
:1009D000201C2C30FEF7DAFD201C3830FEF71EFFFD
:1009E000261C201C70365030FFF70AF9301CFFF728
:1009F00087FA231C9C33181C0193FFF785FB05F035
:100A0000BFFD2A6880183860201CFFF78DFFA18F7A
:100A1000201CFFF703FF301CFFF7ACFA0C22011C6F
:100A2000201CFFF7D7FE218C201CFFF7F7FE201CAF
:100A3000216DFFF705FF636D201CD9B2FFF7E2FEC1
:100A4000201CE16AFFF734FF618F201CFFF7E6FEF0
:100A50000198FFF791FA0422011C201CFFF7BAFE4F
:100A6000201CAC30FFF7D0FB011C201CFFF7D6FE8A
:100A7000201CFFF773FF201CFFF74CFE231CBB3329
:100A80001B78002B03D0201CAC30FFF78FFB201C01
:100A9000C030FFF7BFFD2A680B4B9A420FD90B4BB2
:100AA000E35C002B0BD005F06BFDF8342368084A9B
:100AB0009B18984203D90349014801F059FBF7BD3F
:100AC000E803000000000000E70300000702000048
:100AD00018FCFFFFC046C04687239B0070B5041C6E
:100AE000C058800AC0B205F09DFC051E09D00F4E0B
:100AF0000F49301C05F0B5FE301C291C0A2205F0F8
:100B00001CFF87239B00211CE058D831202205F0D0
:100B1000B3FC041E09D0054D0649281C05F0A1FEB2
:100B2000281C211C0A2205F008FF70BD9C2500200E
:100B300038B302004FB3020087239B00C35870B53F
:100B40001A68474E051C041CD835B2421DD04549D1
:100B5000454805F0A3FE281C0021202209F05AFB7D
:100B6000424A231CE8332E601A60221C0123ED3216
:100B7000137053709370D370137153719371D37159
:100B80001372201CFFF7A8FF25E02A6000229918A5
:100B90000879A118DC3101320870082AF7D1197BD5
:100BA0001869221CE43211705060197D1172597D50
:100BB0005172997D9172D97DD172197E1173597ECE
:100BC0005173997E9173D97ED173197F11745A7FB5
:100BD000231CF5331A7087239B00E2582B1C43CA51
:100BE00043C362CA62C303CA03C3201CFEF706FBE9
:100BF000201C2C30FEF794FC201C5A213830FEF7C4
:100C0000A3FE201C5030FEF73FFF201C7030FFF782
:100C1000EBF8201C9C30FFF7F1F9201CAC30FFF7FB
:100C2000BEFA201CC030FFF7F1FB322005F0ACFC0F
:100C30000F48104B0125036008235B42C363231C4C
:100C4000D4331B68836000F0CDFB81239B00E55407
:100C50000949054805F022FE084BE55470BDC04621
:100C60004E61BC0067B302009C25002060EA0000D2
:100C70002C24002090B3020095B30200070200006C
:100C800037B5041C092A1ED101231A1CE018DB30D9
:100C9000CD5C00780133281A454268414042024049
:100CA000092BF3D1002A0ED00F49104805F0F6FDAC
:100CB000822301229B00E25405F062FCF834C83024
:100CC0002060002208E00948094905F0E7FD822379
:100CD00000229B00E254012201AB1A7001A90122FB
:100CE000044800F0FDFB3EBD9EB302009C250020A1
:100CF000ACB302002C24002010B5041C9C30FFF77C
:100D000060F9231CED331B78201C3830002B05D0F4
:100D1000231CEC331978FEF7EDFD01E0FEF7F9FD39
:100D2000231CEE331B78201C5030002B04D1231CD5
:100D3000EF331B78002B02D0FEF72AFE01E0FEF70E
:100D400035FE231CF0331B78201C002B02D0FEF74D
:100D500059FB01E0FEF748FA231CF1331B78201CF5
:100D60002C30002B02D0FEF785FB01E0FEF79CFB48
:100D7000231CF2331B78201CAC30002B02D0FFF771
:100D8000EEF901E0FFF7FFF9231CF3331B78201C79
:100D90007030002B04D1231CF4331B78002B02D0BD
:100DA000FFF710F801E0FFF715F8231CF5331B7867
:100DB000201CC030002B02D0FFF74AFA01E0FFF7F9
:100DC0000AFB10BD074B012210B5C254822300223A
:100DD0009B00C254041CFFF78FFF201CC030FFF79C
:100DE00046FA10BD05020000F0B5041C85B00D1CCC
:100DF000161E00D12AE10B78062B00D1C2E010D8D4
:100E0000032B2BD008D8002B1DD0022B00D019E1CA
:100E1000D2B2FFF735FF15E1042B2AD0052B5AD0AB
:100E200010E1122B00D1E4E006D8102B00D1BEE077
:100E3000112B00D1D7E005E1132B00D1EFE0FE2B01
:100E400000D1F0E0FEE085239B00C35C102B00D0B6
:100E5000F8E0031C0122E4331A7038E0D2B2FFF745
:100E60000FFF002800D1EDE0822300229B00E25416
:100E7000E8E001A97648042A02DC01220A7031E088
:100E80006F78AA783F061204BA18EF78231C3F0245
:100E9000D2192F79E833D2191A60002701220F7076
:100EA00000F01EFB231CF8331F60062E0FD1221CFE
:100EB000EC326B791178994209D0201C13703830CC
:100EC000012B02D1FEF706FD01E0FEF70BFD201C11
:100ED000FFF702FEB6E001AF0A2A06D001225C4805
:100EE0003A70391C00F0FCFAACE04A78031CED3390
:100EF000002A00D001221A70AA78231CEE33002A9F
:100F000000D001221A70EA78231CEF33002A00D0A7
:100F100001221A702A79231CF033002A00D0012202
:100F20001A706A79231CF133002A00D001221A704A
:100F3000AA79231CF233002A00D001221A70EA7920
:100F4000231CF333002A00D001221A702A7A231CB2
:100F5000F433002A00D001221A706A7A231CF53378
:100F6000002A00D001221A70201CFFF7B5FD0023D3
:100F7000391C012236483B7000F0B2FA201CFFF702
:100F8000BBFE5FE001AE00210722301C09F042F9F0
:100F900001237370F37033233371EE2303227371D3
:100FA000EA23B270B3712A48311C07229AE7031C66
:100FB000E433197801AF002990D1381C092209F0D7
:100FC00029F9012680210020490005F09BFDA31985
:100FD000C0B2B855DB3301361870092EF2D11C4867
:100FE000391C321C7EE785239B00C35CFE2B29D174
:100FF0001EE04B78012B25D1031C0026E4331E7024
:10100000083B1E705E709E70DE701E715E719E7178
:10101000DE71FFF761FD82239B00E65412E0C030D1
:10102000FFF725F90EE0D2B2FFF72AFE002809D01B
:10103000084A0023A354084A0548A35400F04CFA78
:1010400001F0ECFA2A7885239B00E25405B0F0BD4C
:101050002C240020060200000502000010B5041C2C
:101060009C30FEF7BCFF201C3830FEF752FC201CE1
:101070005030FEF79BFC201CFEF7B6F8201C2C30ED
:10108000FEF712FA201CAC30FFF77DF8201C703000
:10109000FEF7A0FE201CC030FFF79DF910BD000038
:1010A000822208B5920000238354034A8354034AE2
:1010B0008354FFF7D3FF08BD0602000005020000BD
:1010C00008B5C030FFF766FA08BD08B5C030FFF7B5
:1010D000BBF908BD08B505F053FA074B186007487F
:1010E000FFF7F3FF072005F0FEF90720044900226F
:1010F00005F0F2F9002008BD042200200C22002097
:101100000511020010B505F03BFA124B1A681C1CC1
:10111000801A63280DD8104A136801331360032B1B
:1011200007D10E490E4805F0B9FB072005F0DBF9A1
:101130000DE005F025FA20600A48FFF7C1FF0720FF
:1011400005F0D1F907200849012205F0C5F9002072
:1011500010BDC0460422002008220020D4B30200A3
:101160009C2500200C220020D510020008B5024862
:10117000FFF716FC08BDC0460C22002008B5044944
:10118000044805F08BFB0448FFF71CFE08BDC04671
:101190000EB402009C2500200C22002008B5044952
:1011A000044805F07BFB0448FFF77AFF08BDC04602
:1011B00025B402009C2500200C22002038B5051C17
:1011C0000C1C0548054905F069FB291C0448221C34
:1011D000FFF70AFE38BDC0469C2500203FB4020040
:1011E0000C22002038B5364C0025201CFDF7D2FF1C
:1011F000201C2C30FEF71FF9201C11213830FEF77F
:10120000F2F9201C00212022503009F003F8201CA4
:1012100000212C22703008F0FDFF231C8E330122A8
:101220001A70231C8F330622201C1A7000211022F2
:101230009C3008F0EFFF201C12210322AC30FEF797
:1012400071FF201C1D210722C030FEF7EDFF1D4A53
:10125000231CD4331A60231CF8331D601A4A231C44
:10126000FC331A60601C8022291C5200FF3008F0F9
:10127000D1FF80239B00E554144BE622E554144B28
:101280009202E554134BE55481239B00E554124B25
:10129000E554124BE554124BE55482239B00E55470
:1012A00083239B00E55084239B00E55085239B000E
:1012B000E55486239B00E55087239B00E25038BD10
:1012C0000C22002056B4020060EA00000102000077
:1012D00002020000030200000502000006020000F6
:1012E0000702000010B50720022105F02DFA962113
:1012F00089010F4805F06AFB0E4800F075FB0E4CA3
:10130000201CFFF719FC072005F074FA002808D10B
:1013100007200A49012205F0DFF8201CFFF7D0FE64
:1013200004E007200649002205F0D6F810BDC046AB
:101330009C250020082500200C220020D51002004A
:10134000051102007FB51821684604F071FF0028DE
:101350000AD0064B002B07D069461423CA7CCB5613
:10136000009801A900E000BF07B000BD0000000028
:10137000174BF0B501261E60164B00250360164B77
:1013800085B04360154B102783608319041CC5602A
:10139000056145618561C5613A1CDD776846104984
:1013A00008F02FFF201C3A1C6946213008F029FF65
:1013B000231C3633C5226586A5861A705023A36385
:1013C0000423E363231C4033201C1E7005B0F0BDD2
:1013D000742600207BB602006EB4020076B40200D0
:1013E0005EB40200294B10B51B78041C002B12D1EF
:1013F000274B1B78002B0ED000F0BEFB96239B01E1
:10140000984208DD234C2078002803D0013400F0F6
:10141000BFFCF8E7FEE722681F4B211C1A606268D8
:101420001E4B21311A60A2681D4B1E481A60E268EB
:101430001D4B1A6022691D4B1A6062691C4B1A60B1
:10144000A2691C4B1A60E2691B4B1A60631CDA7FAD
:101450001A4B1A70102208F0D4FE628E184B1A80B4
:10146000A28E184B1A80231C36331A78164B1A702A
:10147000A26B164B1A60E26B154B40341A7022783F
:10148000144B1A7001F084FA10BDC0469925002053
:10149000982500207DB402000C2700208020002029
:1014A000982000208620002040270020DC270020F4
:1014B00008270020C0270020C4270020D9270020AB
:1014C000E8260020CA270020782000207C20002069
:1014D000842000208520002008B501F0DDFC08BD37
:1014E00008B5D2B2081C111C01F016FD08BD0000A1
:1014F000022310B503600423041C43600749142031
:1015000004F0D4FF064AC5239B00D158FF20814335
:10151000C0200143D150201C10BDC046451302001D
:1015200000E100E008B50348FFF7E2FF0248FFF7DB
:101530001FFF08BD702400202C24002070B5031C60
:101540008C331B78022B01D000231BE00023934235
:101550001AD0051C5A352C781F2C17D8661C2E70F3
:10156000CD5C04193834A5700133F0E7051C7C35D7
:101570002C781F2C0AD8661C2E70CD5C04195834A8
:10158000E57001339342F1D1101C00E0181C70BDCE
:10159000031C383337301A780378D01A7047021C8E
:1015A000011C3732383113780978994204D9591C13
:1015B0001170C318D87D01E0012040427047031C20
:1015C000021C373338321B7812789A4202D9C0187D
:1015D000C07D01E0012040427047704710B5021CF9
:1015E0008C321278031C041C022A0AD15A34227845
:1015F00000201F2A10D89B18501C38332070997077
:1016000009E07C34227800201F2A05D89B18501C42
:1016100058332070D970012010BD0000FA229200CA
:1016200082600B4A00230832026064220261FF22BA
:101630008275021C373243601370537093702332EB
:1016400013702132537013700132D16013747047DC
:1016500040B50200F7B5071C88373B68A022D200CE
:101660009958A025019100219950427D284BC13203
:10167000FF32ED0592005351027D0126C132FF3247
:1016800092005351027D331C93401A1CA123DB00AE
:10169000EA50427D311C9140E950041C042004F0C2
:1016A00081FFA223DB00E958227DD140314201D1E4
:1016B000132523E0EA58637DDA403242F8D0012056
:1016C00020E0627D012393401A1CA026114BF605F1
:1016D000F250042004F066FF627D0121A1239140B5
:1016E000DB00F150042004F05DFFA223DB00F25880
:1016F000237DDA40131C01221342E0D1013D002D6D
:10170000DFD1281C3A680199A023DB00D150FEBD2F
:101710000D0700000C05000038B5417D234AC1319A
:10172000A023FF31DB058900CA50017D051CC131B2
:10173000FF3189008835CA502B6800211A1CFC3201
:10174000D1601162417DA122D2009950017D184AD9
:10175000041C99500269FA2A06D0C82149008A421D
:1017600004D0CC22520403E0802200E0CD22D20437
:1017700010495A50A07DFF2809D104F081FFC0B262
:10178000A075FF2803D10C480C4905F087F800210B
:10179000A07D0A1C00F0BCFE2A68A0230521DB0006
:1017A000D150201CFFF756FF012038BD0C07000068
:1017B0000C050000240500009C25002020B5020037
:1017C000F8B5071C88373B68094EA025ED000022BC
:1017D0005A51041C9A51052004F0E4FE3B68012292
:1017E0009A5105225A51201CFFF796FFF8BDC046BA
:1017F000FC0F0000F0B585B0041C0191151C02938C
:1018000001D100208FE0061C8836807D012A08D196
:10181000029A012A05D132689C235B00D118143248
:1018200004E032689C235B00D1181C3200F070FE8B
:10183000336801221A603D4F00220092261C883630
:1018400033681A1CFC32D16800292ED1013F002FC9
:10185000F4D100210A1CA07D00F05AFE3368344AFE
:101860000220995801400CD09958084398501A1CEE
:101870000021FC329160012159619368002BFCD05A
:10188000BFE79D58042635400BD0985806439E501C
:101890001A1CFC329160012159619368002BFCD025
:1018A000AFE7201CFFF78CFFABE7002FD1D0002162
:1018B000D160019A013D01320392A322D2009B58CC
:1018C000019AEDB21370009B0133DBB20093012D3E
:1018D0000BD1029B012B0AD132689C235B00D118EB
:1018E000A07D143200F014FE01E0002D0AD0142077
:1018F00004F058FE231C88331B6801221A62039AE5
:1019000001929BE7029B012B07D131680B1CFC3332
:101910009A68002AFAD000229A600021A07D0A1C51
:1019200000F0F6FD009805B0F0BDC046102700009D
:10193000C4040000F8B50425002A4DD0041C8834E6
:101940000D7824684E1C254965500125A560244D5D
:10195000211CFC310F6A002F27D1013D002DF7D14A
:10196000204B0225E2582A400AD0E2581543E550A0
:1019700000238B60012363618B68002BFCD010E097
:10198000E65804252E4209D0E0580543E5500123CE
:101990008A6063618B68002BFCD004E0FFF710FFC6
:1019A0001AE0022518E0032516E0002DD8D0013AF0
:1019B0000027D2B20F62BA4204D03178074F013605
:1019C000E151C5E7012B01D0002505E08A60636184
:1019D0008B68002BFCD0F7E7281CF8BD1C05000025
:1019E00010270000C4040000031C88331A68094B48
:1019F00010B5041C8C349A4203D105234375062389
:101A000002E00D2343750E230375FFF785FE0123C6
:101A1000237010BD0040004038B5041C202A03D8B4
:101A2000002082420CD000E02022201C8830056873
:101A3000B120C0002950211C201C1731FFF7DAFE0D
:101A4000231C3733002238341A70207038BD08B593
:101A50000123FFF7E1FF08BD08B5C9B2D2B20123E7
:101A6000FFF7DAFF08BD08B5C9B2D2B2DBB2FFF7A3
:101A7000D3FF08BD031C8C3302221A70533B19702C
:101A80005A30002303707047031C8C3302221A70F3
:101A9000533B19705A3000230370704738B5051C4A
:101AA0005A352A78041C0B1C0420002A0DD0221C55
:101AB000883211684F3A1078B122D2008850211C28
:101AC0002A78201C3A31FFF735FF00232B708C3425
:101AD0000123237038BD08B50121FFF7DFFF08BDE2
:101AE00008B504490448FFF799FD04480449FFF785
:101AF00095FD08BD00400040082500207824002006
:101B00000030004008B5024804F0C6FF08BDC046DA
:101B10009C25002038B50A4CA12301250022DB00BA
:101B20006560A560E2500223D1229A40A350C122F1
:101B30009A40A3501120034904F0B8FC256038BD39
:101B400000100140F964020008B5FFF7E3FF084AFE
:101B5000A023DB0503219950064A802109069950EC
:101B6000AF2380220021DB00D205D15008BDC04642
:101B70007C0700000C050000374A384BD358384A20
:101B8000934253D025D8374A934247D00DD89D224F
:101B9000120393425DD0344A93423CD09E22D2023B
:101BA000934254D19620C00055E0304A934238D039
:101BB00006D8E120EC228001920393424BD046E00C
:101BC0002B4A93422FD08022120493423FD12948BE
:101BD00041E0294A934231D00AD8284A934228D07A
:101BE000274A934227D0274A934230D1E1201EE072
:101BF000254A934225D005D88022D204934226D18B
:101C0000224828E0224A93421ED080225205934265
:101C10001DD120481FE0962040011CE09620800145
:101C200019E0962000E0E120C00114E096200002B7
:101C300011E0962000E0E12040020CE0E12080026B
:101C400009E0E120C00206E0E120000303E00020FB
:101C500001E09620000170470020004024050000AC
:101C600000509D000050270000B0130000A04E005F
:101C700000F07500127A000000B0AF0300903A0146
:101C800000E0D70100F0EB0000705F0790D0030088
:101C9000A4DFBE0E40420F00044B054AD050054B56
:101CA0001A78012A01D102221A7070471C0500001F
:101CB0000020004098250020014B0022DA60704788
:101CC000FC200040014B00221A627047FC200040BB
:101CD00008499022D2008858012330B5184001D01D
:101CE0008B5004E08D580424254201D08C50181CE0
:101CF00030BDC0460020004038B5074D281C04F018
:101D000026FE064C201C04F022FE291C221C04483E
:101D100004F07CFE38BDC046B82500200026002017
:101D20009C25002070B5154E3378002B25D0144823
:101D300004F048FE134B144A002199640121D1603C
:101D400051609A6C104C002AFBD0A023DB000025C8
:101D5000E550022004F0A3FB0C4B0C22E158A02319
:101D6000C131FF31DB058900CA50A121C90061588A
:101D7000C131FF318900CA50357070BD98250020EF
:101D80009C250020FC200040002000400C050000A5
:101D900008B5011C014804F05DFE08BD9C2500202B
:101DA000F7B5041C08A800788446714806780196A7
:101DB000002E00D0DAE0E0277F00D619A0206D4F7A
:101DC000C005B6003750E02676008F19019EBF008F
:101DD0003E50694E694FF251694AB150A222D20079
:101DE000FF2B07D0E0277F00D919019F89000F50F2
:101DF000B35002E001214942B150A1226146D20014
:101E0000FF2909D0E0277F00391C6144594F890020
:101E100047506046B05002E001214942B15096223D
:101E2000120294425DD029DC96229201944252D053
:101E30000EDC96221201944248D09622520194421E
:101E400047D09622D200944256D19E25ED0253E00F
:101E50009622D201944240D006DCE12292019442C3
:101E60004AD1EC25AD0347E0E122D201944236D0BD
:101E7000444A944240D180252D043DE0E122920263
:101E8000944234D00DDC9622520294422BD0E122AF
:101E90005202944229D0E122120294422CD13A4DAE
:101EA0002AE0E122D202944223D005DC374A944250
:101EB00022D18025ED041FE0E122120394421AD0C2
:101EC000334A944218D180256D0515E09D252D03D8
:101ED00012E0304D10E0304D0EE0304D0CE0304D52
:101EE0000AE0304D08E0304D06E0304D04E0304D62
:101EF00002E0304D00E0304D304AB550304AFF2B03
:101F000006D16146FF2903D11B4B0021995001E006
:101F10000123B350A0230422DB00F250C1239B0015
:101F2000F25884210A43F250264B0022DA601A62EA
:101F30000F4B0125022024491D7004F0B7FA234BF2
:101F4000B5601B783560002B10D1214B1B68002B2E
:101F50000CD096239B019C4208DD1E4C2078002863
:101F600003D00134FFF714FFF8E7FEE7F7BDC046E2
:101F70009825002001030000002000400C0500000F
:101F800014050000127A000000F0EB0090D003006E
:101F900040420F0000B013000050270000A04E0088
:101FA00000F0750000509D0000903A0100E0D7015C
:101FB00000B0AF0300705F07A4DFBE0E2405000071
:101FC0006C050000FC200040051B02009925002044
:101FD0007826002060B502002EDF704733DF70479F
:101FE00035DF70474ADF704748DF704721DF7047B1
:101FF00022DF704723DF70470E4B0F4A022130B5B6
:1020000099508021C9005D580C1C002DF9D0A121E8
:10201000084D8002C9006850185906490028FBD0B5
:1020200088580224A04388508022D2009A58002A5F
:10203000FAD030BD00E0014004050000094A0A4B17
:1020400030B501249C50141C8022D2009D58002DD4
:10205000FAD0016004490020085199580029FCD0A9
:1020600030BDC0460405000000E0014070B58901A4
:10207000002815DAC0B20F230340083B124A9B0820
:102080009B009B1803221040FF24C200DD69201C26
:10209000904085430C4094402A1C2243DA6112E0B0
:1020A00082080A4B03249200D2182040C023A0408B
:1020B0009B00FF24D558261C8640B5430C40844025
:1020C000281C2043D05070BD00ED00E000E100E08E
:1020D000F8B5BE22204B52009A58002A3AD0A223CB
:1020E000A022DB00D205D2581C4B1D4D1B68191CC9
:1020F000114313401B4AC94312680B4313402B6022
:102100002B68002B05D1BE23134900225B00CA5067
:1021100020E00024144B1B689C42F4DA0C26664332
:10212000124F2B68F059C340D90711D5BA1953681B
:10213000002B03D0984700280AD103E09368002BB6
:1021400000D09847BA592B68012191408B432B60EE
:102150000134DFE7F8BDC046006000407026002073
:10216000842600207C26002080260020882600204F
:10217000F0B5584B564A041C0D1C12196B4189B01E
:10218000581C02D1584B9A4201D8534C534D04F07D
:10219000D7F9564B02901B68C0170390002B00D054
:1021A0007CE0002D01D1012C78D901225242D317B5
:1021B000201C291C8018594100900191019A4C4E15
:1021C0004C4BD103F758430C1943009B0137D803FC
:1021D000434A444B05F044F9A823DB003F18F7506D
:1021E000D12280235B029200B350C1229200B350EF
:1021F000414B1A68002A66D18023A321DB05012008
:10220000C900D8605A503D498A6098608B68002B9D
:10221000FCD080230122DB055A60344B364F1B680B
:10222000002B10D0D22200239200B350C222920081
:10223000B3503B68002B31D1304A012153608023D9
:10224000DB05196019E03868002802D0FFF7CCFEE2
:1022500000E030BF04F074F90490C0170590049AB0
:10226000059B02980399121A8B4101999942D4D87F
:10227000D8D100989042D0D8D4E751688023DB05AC
:102280000029FAD0A32601210020F600D960985138
:102290001A4EB06099609368002BFCD0134B1B68FA
:1022A000002B13D104F04CF90690C0170790069A42
:1022B000079B02980399121A8B419D42EED805D1D3
:1022C0009442EBD802E0FFF78DFEA6E709B0F0BD1F
:1022D000FF7BF3DBFFFFFFFF00840C240000000006
:1022E000E803000000000000FD7BF3DB84260020F3
:1022F000001001400405000078260020FC0000408A
:1023000038B5A022364BD205D3580124C34023420E
:1023100064D1A1421DD0002938D0052953D1A02372
:102320008200DB05D218E023DB00D5582D4984401C
:102330002940D150D158E043D1502B4B1A6802406C
:102340001A602A4B1A6802401A60294B1A6810401A
:1023500038E0A023DB058200D218E023DB00D5584B
:10236000204C81402C40D450D5588024A4022C43CA
:10237000D4501D4B1A680A431A601C4B1A680A4352
:102380001A601B4B1A688A431A601CE0A023820063
:10239000DB05D218E023DB00D558124984402940E0
:1023A000D150D558C02189022943D1500E4BE0436A
:1023B0001A6822431A600D4B1A6802401A600C4BCF
:1023C0001C68204018600B4A8021C12309069B002D
:1023D000D15006200849032204F072F838BDC046E7
:1023E00014050000FFFFFCFF7C2600207026002063
:1023F0008426002000600040D1200200F0B52D4C62
:10240000A025ED052E590125C64087B02E404ED19E
:10241000294C05290CD1294B24681B68854004935D
:10242000274B05941A68ED439446331C321C17E081
:102430002568072D39D80C266E43224F0135F051FF
:10244000BE197260B36025602FE00C26341C544323
:102450000294029F1B4C3F590397874204D10132DB
:10246000059EB242F1DB18E0934214D05E4337512F
:102470000196029EA719019EA4197E686660BF6836
:10248000A760114C674626682F402E402660049CAA
:10249000BC462C4004940133E1E7084A049F64469B
:1024A0001760074A1460044A1360FFF729FF07B05A
:1024B000F0BDC04614050000802600207C260020C8
:1024C00070260020882600208426002008B50023DE
:1024D000FFF794FF08BD08B5131C0022FFF78EFF1D
:1024E00008BD000008B5074B1B68002B02D0FFF7A2
:1024F00077FD08BDBFF34F8F034A044BDA60BFF38B
:102500004F8FFEE7782600200400FA0500ED00E07A
:102510000D4B10B51B68041C002B06D0FFF76AFD9D
:102520000120A040FFF762FD0DE0C30007481B1823
:10253000A220C000195006495A500123A3401C1C78
:10254000024A044BD45010BD7826002000F0014010
:10255000140500000405000008B5074B1A680123A4
:102560008340181C002A02D0FFF742FD03E0A1229D
:102570000249D2008B5008BD7826002000F00140AF
:102580000D4B10B51B68041C002B08D044B2201C56
:102590000121FFF723FD201CFFF71EFD0AE040B2DA
:1025A0000121FFF763FD1F231C400123A3401C1CD6
:1025B000024B1C6010BDC0467826002000E100E000
:1025C0000C4B10B51B68041C002B07D044B2201C18
:1025D000FFF704FD201CFFF7FFFC09E040B2FFF706
:1025E00045FD1F231C400123A3401C1C024B1C6003
:1025F00010BDC0467826002000E100E008B5024B7F
:102600001B68984708BDC0467420002008B5024BDF
:102610001B68984708BDC04670200020064B8022EA
:10262000B221D205D150BFF34F8F044A044BDA6078
:10263000BFF34F8FFEE7C0461C0500000400FA05FB
:1026400000ED00E01423186870470000BFF34F8FBF
:10265000024A034BDA60BFF34F8FFEE70400FA052E
:1026600000ED00E072DF704773DF704774DF704782
:1026700076DF704777DF70477ADF70477CDF70471F
:1026800084DF704785DF7047A7DF704760DF7047E2
:1026900051DF704729DF704728DF70474EDF7047F2
:1026A0004FDF704750DF704711DF7047014B1860F4
:1026B0007047C0466C26002008B50748FFF7D4FFD6
:1026C000002801D0FFF7C2FF044B002B02D00120ED
:1026D00000E000BF08BDC046EC260020000000005E
:1026E00038B5041C01F028FC2A4D211C281C02F0DE
:1026F000D5FE294B1B68002B03D02848211C02F073
:10270000E1FC208810380A2843D804F0B1FD061DEA
:1027100036424242424242252E00214B002B02D03B
:10272000002000E000BF1F4B002B01D0FEF726FD6C
:102730001D4B002B2DD0688CFFF7A4FF0121688C66
:102740000A1CFFF79DFF24E0184B002B01D0FEF779
:1027500025FDFFF7B1FF1CE0A079002819D1104B2F
:10276000002B16D000E000BF13E00F4B002B10D061
:102770000620205600E000BF0BE020896289A18975
:102780000B4BE4881C600B4B18600B4B19600B4B18
:102790001A6038BD18270020042000209027002050
:1027A000000000007D110200000000009D110200E9
:1027B000142D0020182D00200C2D00201C2D002091
:1027C00008B50A4B588C0A4B984206D01321FFF7E4
:1027D0004FFF002804D0FFF739FFFFF747FFF8E766
:1027E000FA20400003F0D0FE08BDC04618270020A4
:1027F000FFFF000030B5041C85B0002A01D0FFF7B0
:1028000025FF1A4B1B68002B2CD00B78152B29D1D8
:10281000174D042301A90293039501F005FA00283E
:102820001DD12B68DA0714D5124B134A588C0C2192
:10283000FFF72AFF0822031C93430AD00F4A904255
:1028400007D00F4A904204D0112802D00D4A90427E
:10285000D5D1201C01F044FA002803D0CFE70A4B61
:102860009842CCD1002005B030BDC04604200020E5
:10287000D427002018270020FFFF000002300000AE
:10288000043000000134000040800000031C19489F
:10289000002210B542600270174A041C1278002A08
:1028A00026D0012B0FD0002B06D0022B20D1134BAA
:1028B0001B685B6898471BE0114B124AD258124BB9
:1028C0001A6001220EE00D4B1B681B6A98470C4BE7
:1028D0000C4AD2580C4B1B68D21AC4235B009A4294
:1028E00006D90222094B1A708022094B12045A6041
:1028F000201C10BDCC2700203C270020B420002045
:102900000405000000100140202D0020C8270020F1
:10291000FCE100E01FB5094B012409481C70FFF7DA
:10292000BDFE6A46002313701371064B684602937E
:10293000054B54710393FFF7B5FE1FBD3C270020E4
:102940008D280200204E000040420F0010B5041CEC
:1029500001F04AFE072C08D1FFF7A2FE064B1B78B8
:10296000002B08D0FFF7D6FF05E0023C012C02D86F
:10297000024B00221A7010BD3C270020D8270020EF
:1029800008B5FFF763FE08B5FFF760FE0000000022
:10299000D04B0121F0B580221960A323D205DB00C2
:1029A000D358CD48DBB2C3B00370022B00D1D16045
:1029B0005160012B01D0112000E00220C7494822BC
:1029C000002300F08BFD011E01D0FFF73FFE04AC99
:1029D000201C082207F01EFC237801252B43201C15
:1029E0002370FFF753FE0028EFD1BD4800F09AFD99
:1029F0000028EAD1BB4800F09FFD0028E5D1BA4A83
:102A0000BA4BBB4E1A603068BA4ABB4BBB4C1A601B
:102A1000002802D00378002B01D100230DE0B84933
:102A200007F050FD002801D1257007E0306807F05D
:102A300053FD0223042800D003232370B14D2868DE
:102A400007F04AFDB04EB14B3070186807F044FDF6
:102A50002378AF49033B5A1E93413278C0B20870C5
:102A60009B001F2A01D91F22327032780027BA42F8
:102A700001D0971CFFB20025A84201D0051DEDB280
:102A80000633FB18EB18DBB21F2B12D91F3BDBB24E
:102A900000280AD0834205D90125281A1B18DBB269
:102AA0000D7002E0C01A08700023002A01D0D31A6A
:102AB0003370984B00229A56143201DAEC221A70C5
:102AC00000229A56042A01DD04221A70924B1A68D9
:102AD000132A01DC14221A601968A0229201914283
:102AE00000DD1A6001F024FE002800D06DE701AD82
:102AF000281C00F07DFF002807D00123281C2B7024
:102B000000F076FF002800D05FE7684608AD00219E
:102B10000522253007F07EFB6B790127E1223B433C
:102B200013400C221343202293436B710723AB7194
:102B30007A4B10227A48291CEA7108932F7100F011
:102B4000C7FF002800D040E76E4A1023116802A892
:102B50001F4332780770FFF791FD011E00D034E764
:102B6000704F714A714E102310603B60704A1823F9
:102B700006AD336064231360281C082207F04AFB6B
:102B80003B6869492B803368694A6B800B68281C55
:102B9000AB801368EB80FFF76FFD002800D014E7CF
:102BA0005C4D00202856FFF765FD011E00D00CE7A4
:102BB00032AD281C402207F02DFB5E4B196800291E
:102BC00002D0281C00F01DFC5B4B1968002902D0C4
:102BD00034A800F016FC594B1968002902D036A819
:102BE00000F00FFC564B1968002902D038A800F0FD
:102BF00008FC544B1968002902D03CA800F001FCE5
:102C000051493AA800F0FDFB41AB11221A70281C73
:102C100000225A7002F004F84C4E301C02F078FC8E
:102C2000071E00D0D1E64A4B1B68002B18D00BAE14
:102C3000391C301C0C2207F0EDFA464B46487360F5
:102C4000311C0123B760338002F0E4F8002800D083
:102C5000BBE6424802F0A6FB314B187802F0A8FB15
:102C60003F4B1E68002E09D03E4B301C19783E4B5E
:102C70001A683E4B1B78FFF7F5FCC3E03C4B1F780E
:102C8000002F00D180E03B4B684614AC3A4910223B
:102C90005230238007F0B5FA384B0EAD1B881094E4
:102CA0005BBA6382364B311C1B8830225BBAA3822D
:102CB000344B1B78A3751AAC4C232B80201C172394
:102CC000AB8007F0A7FA04232670E3706562201C2E
:102CD000311C92E078260020EA26002044270020BC
:102CE000E12602004D290200AD2F020074200020D1
:102CF0000C270020F12F0200702000201027002058
:102D000005B6020080200020102D00209820002011
:102D1000082D0020842000207C200020F5270200C0
:102D2000DA270020142D00201C2D0020182D002053
:102D30000C2D002040270020DC2700200827002041
:102D4000C0270020C42700200AB602001827002050
:102D5000042000204D52020090270020C1270200CD
:102D600014270020112700208C270020DB270020BB
:102D7000D92700200215000086200020E826002028
:102D8000CA2700207820002039496A464B8826AEA1
:102D900093810B78301C9373391C302207F03AFA78
:102DA000344B281C1B68391C1B78B7705A1E934182
:102DB0005B00337030220623F37007F02BFA227881
:102DC0000123032A03D12B8203AB6B6102E003A929
:102DD00033827161284B1978002907D011AB998093
:102DE000264900200968188013912F93244B002155
:102DF0002793032A00D1291C26A800F0D1FA002825
:102E000000D0E2E51F4C1822201C002107F002FA36
:102E10001D4B18881D4B1A7800239A4207D11C4B72
:102E20001B685A4253410233632800D864200025AE
:102E300023706560257206F05BFC0C4B0A4A05F0B6
:102E4000FFF904F051FB05212082124A012065821E
:102E500001F06CFEA84200D0B7E5FFF72DFC43B0AF
:102E6000F0BDC046C046C046000000000000E43F80
:102E70001827002080200020082D00209820002006
:102E800084200020EC2600207C20002085200020CB
:102E90008C270020AD26020010B5FFF705FC164A6E
:102EA00000231360154A80211360AA22C905D200AD
:102EB000FF208850124A536001230B605168802321
:102EC000DB050029FAD00F490878022806D00E4AFF
:102ED0000E4B1A600E4A0F4B1A6010BDA32401213D
:102EE000E400D96018510648002484609960936812
:102EF000002BFCD0EBE7C046782600206C26002093
:102F0000FC000040EA260020F91F02007420002087
:102F10003D2002007020002010B5021C88B00C1C5F
:102F2000202900D92024E4B2111C6846221C07F095
:102F300068F96946221C044802F048FC43425841A3
:102F4000C0B208B010BDC0461827002007B501A8C0
:102F5000FFF79EFB052807D0002801D0FFF776FB7E
:102F60000198FFF7F3FCF2E707BD000008B5044B3A
:102F70001B78002B02D0FFF7E9FFF8E708BDC04639
:102F8000D827002070B5084D00232C78E4B29C426D
:102F900008D101262E70FFF77FFB331C002801D0DB
:102FA0002C70231C181C70BDD827002008B5FFF713
:102FB000E9FF002801D0FFF7D9FF08BD70B50A4D21
:102FC00000262C78E4B2B4420BD1084B01261960DC
:102FD000321C191C2E70FFF75DFB002801D02C70ED
:102FE000261C301C70BDC046D827002004270020B6
:102FF00008B5FFF7E3FF002801D0FFF7B7FF08BDD2
:1030000072DF704779DF70477DDF704765DF70479B
:10301000F0B587B00C9F061C38780024039102920B
:1030200000930190251C33889D4238DA7268A9000C
:10303000511805A8042207F0E4F8694605A81331E1
:103040000022FFF7E3FF002832D16846C37C0299D3
:103050008B4220D1624262413B78520059188A1853
:103060001F2A1ADC002C06D19A1C3A7001330398EF
:10307000009ADBB2D05400996C463A7813348A181F
:1030800005A8211CFFF7C2FF002811D13A78237848
:103090000124D3183B700135C5E70C2008E000205F
:1030A000844205D03B78019A013B00999B1A8B54CE
:1030B00007B0F0BDF7B5089E171C00960222051C4C
:1030C0001C1CFFF7A5FF002806D10096281C391C00
:1030D0001022231CFFF79CFFFEBD0000F0B500236B
:1030E0001370037887B0061C0D1C141C002B03D131
:1030F000B378002B47D027E043780C201D2B00DD50
:1031000046E16F4616371D23881C391C3B80FFF7AC
:103110007BFF002800D03BE13378022B03D13B88B2
:1031200009221D2B07D97378002B02D008221D2BF2
:1031300001D93B880822DBB2591C29706A702278B9
:1031400002329B182370D3E723780C201B2B00DD61
:103150001EE16F461637381CFFF754FF002800D0D9
:1031600016E1237839885A1C22700322EA54237806
:103170005A1C22701922EA542378EA18117002337B
:10318000090A51702370F378002B0ED023785A1C53
:1031900022700222EA5423785A1C22700122EA5437
:1031A00023789A182270F278EA547368002B12D0B0
:1031B0001A7823780C201C2B00DDE9E0591C2170C3
:1031C0000221E9542378591C21700A21E9542378FB
:1031D000591C2170EA543389002B03D1338A002B08
:1031E00016D00AE0301C00940830022106222B1C65
:1031F000FFF760FF0028F1D0CAE0301C00941030C7
:10320000032107222B1CFFF755FF002800D0BFE049
:10321000338B002B0AD0301C009418301421152257
:103220002B1CFFF747FF002800D0B1E0336A002BCA
:1032300042D021780C200A1C063202911F2A00D9A4
:10324000A6E019880720052900D8A1E0514A8F1867
:10325000514ABFB2974200D89AE05A88052A00D84E
:1032600096E04C4FBF18BFB2BC464B4FBC4500D890
:103270008EE04A4FB94204D0BA4202D0914200D9FE
:1032800086E0029A02990132227005226A5422785D
:10329000511C21701221A95422781888A91808708D
:1032A000000A4870901CC0B2207059882B18197001
:1032B0000432090A59702270776A002F28D03A79AF
:1032C0002378911C981CC9B241180C201F295FDC7F
:1032D000591C03322170EA5423785A1C2270FF22B1
:1032E000EA5423783988EA1802331170DBB2090AEC
:1032F00051702370BA88002A0AD0B96807200029C3
:1033000046D0E81806F07DFFBA882378D3182370DA
:10331000371C2C3703973B780020834238D0B16AA2
:10332000814201D0029021E0072031E0029A0C276F
:103330005743B36ADF193A7923780332591C217055
:10334000EA5423785A1C22701622EA5420783A88CC
:103350002B1802301A70C0B2120A5A702070BA8844
:10336000002A09D1029B0133DBB20293039F3B7811
:10337000029FBB42DAD80AE0B9680029D4D02818E5
:1033800006F03FFFBA882378D3182370EAE70020BD
:1033900007B0F0BD7FF3FFFF7DF30000FFFF0000EB
:1033A000F0B593B06D466E460023063507360C1C0B
:1033B0002B703370984204D0C3785A070FD407207B
:1033C0001DE0071C002C03D0E378002BF7D10EE0A2
:1033D000221C29783378381CFFF712FE0FE002A96F
:1033E0002A1CFFF77BFE02AF0028EBD007E0321C5F
:1033F000201C0AA9FFF772FE0AAA0028E9D013B020
:10340000F0BD38B5041C081C0D1C07F065F865609C
:10341000208038BD2EDF704751DF704710DF7047C6
:1034200061DF704708B5081C111CFFF7ACFA08BD36
:10343000F0B5254B85B01B78002B42D0234E244F8E
:103440003268544254413A68E4B255425541EDB2B3
:10345000002C34D103A8FFF7DFFF05280AD000288D
:1034600004D0211C221CFFF78BFA04E00398336878
:10347000984700E00124002D1ED1164B03A91B889C
:103480000B80154B1B68181C0193FFF7C9FF051E25
:10349000052D0BD0002805D000210A1CFFF770FA7B
:1034A000002504E001983A68904700E00125002CCF
:1034B000CED0002DCCD004E0002C02D1C8E7002DE6
:1034C000DBD005B0F0BDC046E0270020E827002093
:1034D000EC270020E2270020E427002038B5041C58
:1034E0000720002913D08D0711D10948016009492F
:1034F000201C0A80084A09491360FFF78FFF002843
:1035000005D1074B012216201A70FFF783FF38BD43
:10351000E4270020E2270020F027002025340200C5
:10352000E0270020002803D0024B1860002000E0B4
:103530000E207047EC270020002803D0024B1860B3
:10354000002000E00E207047E827002008B5074B58
:103550001B68002B07D09847002806D000210A1CC2
:10356000FFF70EFA01E0FFF763FF08BDF027002028
:103570007FDF704782DF7047A7DF7047A9DF7047A2
:10358000AADF704700207047002070470020704776
:1035900000207047002070470020704700207047CF
:1035A000F7B5041C0F1C6A468178224801F086F9A1
:1035B00000283DD162780C214A431F4B9A18927A19
:1035C000530605D4022F03D0012F03D11B4D02E077
:1035D0001B4D00E01B4DA1781C2671431A4B684619
:1035E0005918321C0023A847002813D1022F1FD0DE
:1035F00063780C225343104A4021D3189A7A6846C4
:103600008A439A726178114B7143321C5918331CEA
:10361000A84701E0022F0BD023780C2253430C4A19
:103620006846D3189A7A0B4B9200D358211C9847BE
:10363000F7BDC04650290020302800200D49020067
:103640008D490200853502003C2800200029002019
:103650004029002010B60200F7B5019043782421DC
:103660005943264A264F50184468002C0FD00C208E
:1036700058433818807A45B2002D07DA450605D43C
:103680000E1C0836A5B296198C5802E00024251CA1
:10369000261C0C225343FB181889311C2A1C231C9E
:1036A000FFF76CFF0B280BD1019A311C53780C22C9
:1036B0005343FB1818892A1C0123FFF75FFF0124DD
:1036C000002800D00F48012C17D1019D0C216B78E8
:1036D0000D4A4B43FB181889FFF74EFF00280CD00A
:1036E0000A4B984208D0082806D0094B984203D0CC
:1036F000112801D0002000E00248FEBD1C29002056
:103700003028002041800000FFFF00000230000050
:103710000430000008B5FFF79FFF08BDF0B58BB07F
:103720006D460A351A23019000912B804B780C21AD
:103730004B43234A03A9D31818892A1C0323FFF7F4
:103740001FFF002839D1009B242658781D4F704355
:10375000083003A938182A8806F044FD00993C1C5B
:103760004B7800280DD10C225A4315498A18917ABA
:103770000222114021D17343321CF81806F04AFD91
:103780001BE05E43BE197268002A01D00E4F00E0B4
:103790000E4F242673430322E2502A88E11808338F
:1037A0004A60E01803A906F02CFD009A01985178B0
:1037B00038237143321C6118B84700200BB0F0BDAC
:1037C000302800201C2900208D4902000D490200EC
:1037D00008B5FFF7A3FF08BD70B5031C4878242483
:1037E0006043094D0E1C2818191C221C382301F0B7
:1037F0000DF9002806D173785C432D196B680133ED
:1038000000D1686070BDC0461C29002008B5FFF7D4
:10381000E3FF08BDF0B51C1C4D4B161C1A6893B095
:10382000019000911F1C002A00D18FE01898742885
:1038300000D98BE003ABFF22002569465A709A70CD
:10384000DA701D700D760B940A90A9B2414804AA53
:1038500001F034F8002809D1019804A9082206F0E3
:10386000C1FC002802D103AB9D7002E00135072D99
:10387000EBD103ADAA78FF2A68D0009806AB0428E4
:1038800006D1189C2022742C00D040221A7046E0E9
:103890003149611AC32910D83049002E04D10120C2
:1038A0000C689040044251D001209040021C0868EE
:1038B0009043202208601A703EE02949611A1B29B2
:1038C00008D820221A7000236B700CAB0B931823BE
:1038D0000A9331E02348211A23290FD8302369465F
:1038E0000B7600236B700123EB701F4B997A022338
:1038F000194021D1242206F08DFC1DE040211970D1
:103900001A4B9C420BD01A4B9100CB58A3421DD1AD
:10391000154BDB7A93420FD100236B700CE006ABA2
:103920001A7803210A431A7009AB0793281C3B68D5
:1039300006A9321C984709E0009C06AB032C02D173
:103940001A780121EEE71A780221EBE713B0F0BDF7
:1039500040290020502900203C2800204C2900202C
:10396000002900201C2900203028002040B6020039
:10397000F427002070B51C2444430F4E051C301959
:10398000002134190622113006F044FC201C0021CD
:10399000102206F03FFCFF232374A37601235B4231
:1039A0002383064B01221968AA4091431960044BF6
:1039B000AD000022EA5070BD3C2800204C290020B8
:1039C000F427002037B581B2051C6A46074800F08D
:1039D00075FF041E08D16846742101F05FF8041ECB
:1039E00002D1281CFFF7C6FF201C3EBD5029002035
:1039F000F0B5051C85B0002855D02C4B00242C4870
:103A00001C605C729C72012383725B42211C072242
:103A10000381C37206F0FEFB2648211C242206F017
:103A2000F9FB201CFFF7A6FF234BFF22E2540134D1
:103A3000072CF6D16A46214F74239380204B6846A9
:103A4000391CD480009300F0BDFE3E1C00282BD111
:103A50001C4B2C7801221A701D1C002C1AD1A1B20B
:103A6000301C02AA00F02AFF071E0CD11C22131CD6
:103A70006343154802A9C0183B1C00F0C7FF00288B
:103A800004D02F7010E000232B700DE00134072CC0
:103A9000E5D109E06A46D1889388381C594389B238
:103AA00000F0FCFF00E0094805B0F0BD402900200F
:103AB000302800201C290020102800205029002038
:103AC00015380200172800203C2800200E80000036
:103AD000F8B5174B071C1B780D1C002B22D00028B3
:103AE00022D0002920D00B68002B1DD0114C266855
:103AF000002E1BD1201C08C00531052206F081FBD9
:103B0000207A2B79012188430222A37210430423D7
:103B100098432072E07901430A439A43E271301CD2
:103B20003E7004E0044802E0044800E00448F8BDA8
:103B30001728002040290020088000000E80000087
:103B4000048000007FB52D4B051C1B780C1C002B3E
:103B500050D000284AD0002948D08A68002A45D091
:103B60000378002B46D1264B1B68002B42D081786E
:103B700006293DD81C234B43224AD3189B7EFF2B9A
:103B800036D043780C2253431F4AD3189B7A1A0726
:103B900030D563680720032B2DD91C4802AA00F0FA
:103BA0008DFE002827D101A802A90422602300F07D
:103BB0002DFF002802D1019A013201D1144E00E0FC
:103BC000144E211D02A804226023B047002812D100
:103BD00002A8A1681022642300F0D8FE00280AD1B0
:103BE000AA78A1680C4B9200D15004E00B4802E087
:103BF0000B4800E00B4804B070BDC04617280020F9
:103C0000402900203C280020302800205029002096
:103C10000D4902008D490200F42700200E800000AB
:103C200010800000088000001FB5244B0C1C1B787E
:103C3000002B3CD0002838D0002936D00378002B48
:103C400035D11F4B1B68002B31D08378062B30D821
:103C50001C225A431B498A18927EFF2A29D0A16848
:103C6000194A9B00002902D1D358A36000E0D1502B
:103C7000817802AA154800F021FE00281CD101A875
:103C800002A90422602300F0C1FE002813D1019B89
:103C9000013310D0A06802A91022642300F0B6FE00
:103CA000002809D1019B636006E0094804E0094847
:103CB00002E0094800E0094804B010BD17280020C0
:103CC000402900203C280020F42700205029002013
:103CD0000E8000000880000010800000408000007E
:103CE0001FB51D4B041C1B78002B30D000282CD096
:103CF0000378002B2BD1194B1B68002B27D0817820
:103D0000062926D81C234B43154AD3189B7EFF2B2C
:103D10001FD0144802AA00F0D1FD00281AD1602358
:103D200001A802A9042200F071FE019B013311D009
:103D300002A80D490422602300F028FE002809D1C2
:103D4000A2780A4B9200D05004E0094802E00948EA
:103D500000E0094804B010BD1728002040290020C9
:103D60003C2800205029002040B60200F427002003
:103D70000E80000008800000108000000A4B1B78B5
:103D8000002B0ED000290AD0002808D00078002887
:103D900007D1064B1B68002B03D0087002E00448D3
:103DA00000E004487047C046172800204029002042
:103DB0000E80000008800000194A031C127810B51C
:103DC000081C002A28D0002B24D0002922D01C78DF
:103DD000002C21D1134A1268002A1DD09A78FF2A9C
:103DE0000AD15B78FF2B19D00C214B430E49C9181F
:103DF0008B7A9A0712D508E01C214A430B4902230B
:103E000089188C7E1C4009D11031072206F0F9F97F
:103E1000201C04E0064802E0064800E0064810BD09
:103E20001728002040290020302800203C280020AE
:103E30000E8000000880000005800000F0B5244BD3
:103E40008BB01B78051C0C1C002B3CD0002838D0F4
:103E5000002936D00378002B35D11E4A1268002A7B
:103E600031D08278062A30D81C2672431A498A1823
:103E7000927EFF2A29D0E360827803AF72438A18CA
:103E80002261164A63616260A3602760817801AA9B
:103E9000134800F013FD002818D1381C01A9321C6A
:103EA000331C00F0B3FD002810D1E060AB780B4963
:103EB0005E43094B60619E1926616160A0602760C6
:103EC00004E0084802E0084800E008480BB0F0BDF4
:103ED00017280020402900203C2800201828002016
:103EE000502900200E800000088000001080000093
:103EF00013B5041C81786A460B4800F0DFFC0028EB
:103F000010D160781C235843084A694610181A1CBF
:103F100000F07CFD064B68469A7A064B9200D35817
:103F2000211C984713BDC0465029002000290020BD
:103F30004029002020B60200F0B5C14A8DB01278A9
:103F4000FF23061C0193002A00D1A8E1BD4A116895
:103F5000002900D1A3E102AD03AF6B70AB70EB7031
:103F6000031D7B602A233B81338800202870B64CD8
:103F7000102B21D0A27AB188900707D5B34881428F
:103F800000D13EE12089884200D13AE1172B00D1CF
:103F9000A5E007D8132B52D0142B2BD0112B00D017
:103FA0007DE10EE01C2B00D111E1522B00D106E186
:103FB000182B00D073E1DDE0A37AD90700D525E105
:103FC0006DE10223101C9843A072110707D543B27C
:103FD000002B0BDA281C0021FFF7E2FA06E0A87894
:103FE000FF2803D0FFF7C6FCFF23AB701023A3729A
:103FF0001223EDE0E37A964FFF2B15D1F1890023D0
:104000001C2058433818008B88420AD1082101939C
:104010000A43DBB2E372A272281CAB70FFF768FFA1
:1040200002E00133072BEBD1E37A0021FF2B00D014
:104030008849B0883A1C0023FFF79CFA2FE13B70B7
:1040400004231A43E37AA272FF2B22D100271C20FB
:1040500078437F4A1018837EFF2B15D12278031CEA
:104060001833022A07D0FD229A70211C0722103033
:1040700006F0C7F801E0FE229A7001AB1F700198AC
:10408000C3B2AB70E37210E00137072FDFD1724C7F
:104090000CE0724816231A22083000213B7006F00B
:1040A000B9F8A37A40221343A37200240021664B7F
:1040B0000991DB7A1C225343654A0B91D3180A936A
:1040C000644B604A069307910891B088043206ABAE
:1040D000FFF74EFA002800D0E1E0221C7AE05948B0
:1040E0000121437A8B43437204239A431423A2721F
:1040F0003B70B379002B04D0E07AFFF763FCB27910
:1041000068E0F379590764D5AB78FF2B61D00821BB
:104110000A43F17AA2728907C90F012906D11C222C
:104120005A434B488218907E88439076E27AFF2A61
:104130004FD02178464A1C2602290CD05E4396199E
:10414000301C07221030211C06F05BF8B37E0222DF
:104150009343B37609E073433E49D318498A1A1C46
:1041600019839B7E01218B439376281C0121FFF745
:1041700017FA2EE0B379112B13D1130711D5374855
:104180001A220830002106F045F816233B70A37A66
:10419000602213432B48A372437A022213434372D3
:1041A00017E080235B421A43264915233B70A27215
:1041B0008A7A2B4B9200D358281C984709E0214B50
:1041C000281C9A7A264B9200D358984767E013230D
:1041D0003B7000221B4803AC0368211C281C984735
:1041E0002378122B5BD11848837A012B57D00123F7
:1041F00083725B420381C3720021072206F00AF832
:104200004DE0E17AA97000216970BFE61123002119
:104210003B706970B388B71D23810223A372201CF1
:10422000391C072205F0EDFF337D0026DA071ED585
:104230000C4A5B08D35CFF2B25D0019323E0C046DA
:10424000172800204029002030280020FFFF000010
:104250003C28002000290020438000001C29002069
:1042600030B60200102800200136072EB1D01C23E2
:1042700073430C48391C1030C018072205F0B2FFF8
:104280000028F1D10196019A0821D3B2A27AE372F3
:104290000A43A272281CAB70FFF72AFE99E70DB003
:1042A000F0BDC0463C28002030B5002912D00A7865
:1042B000002A11D10A4B1B68002B0DD0FF23094C9B
:1042C0008B7025890523854207D14A70E37A8B706C
:1042D000131C02E0044B00E0044B181C30BDC04628
:1042E00040290020302800200E80000008800000B7
:1042F00008B5074B1A6880235B05002A06D01969A8
:10430000F02089B2800203F00BF800E0586908BD84
:104310000420002029DF704728DF704737B58B68FD
:104320000D78021C1C01081C0B694988083000919B
:1043300002496458291CA04737BDC046242A0020E2
:10434000F0B5504C85B002932378051C0191161CE2
:10435000002B06D1029B134301D1022300E001236D
:10436000237023780320013B052B00D987E0181C1C
:1043700002F07EFF031827405F73FFF7B9FF802329
:104380005B051D6919691A69431EA8B25843019B50
:1043900089B292B259439208FFF7BCFF022300286A
:1043A0006CD06CE00198FFF7B7FF002867D10323BA
:1043B000002E63D1029A002A1AD12B78042B36D111
:1043C0005BE080277F053B690393FFF791FF039A2A
:1043D000396993B2019A0138534389B24143321C7F
:1043E000181CFFF797FF002849D1029B002B1BD018
:1043F000042343E080277F053B69019A9BB2534326
:104400006A88B6009B189B190193FFF771FF396901
:10441000013889B241436B880198F6187118029AE5
:10442000FFF778FF00282AD12B78042B13D005231F
:1044300024E080235B051869019A80B250436A88A2
:10444000B300181829699208FFF764FF002816D1F5
:10445000029B1E4311D0062310E0FFF749FF802383
:104460005B051A691969431E90B2584389B202F07C
:1044700009FFFFF751FF002801D10723237005B082
:10448000F0BDC0463D2A0020F8B5324E14223378E4
:104490005343F3181C1D1B79E568042B18D0052B1A
:1044A00039D00F20022B54D12B4B628818882369F6
:1044B00080021918A388121A5D19284B28189A42ED
:1044C00001D8920801E080225200FFF723FF3CE070
:1044D000A26823491301CB18198958895B68802782
:1044E0007F05AB4203D141436388994201D0022A40
:1044F0000AD13969281C89B202F0C4FE164B1B8808
:10450000C018FFF709FF20E03969281C89B202F0C2
:10451000B9FE011C09E080277F053969281C89B292
:1045200002F0B0FEA388011C5D193A693B6992B2A2
:10453000481C4A439BB243436088AA1A45195B1B37
:1045400092089B08201CFFF7FBFE002801D10123E5
:10455000B370F8BD582900203E2A0020FF03000058
:10456000242A0020F8B5144D061C6C7806A807888C
:1045700004200A2C1FD028782418E4B2092C01D971
:104580000A3CE4B2142044432C1962610020221C2E
:10459000267160710C3241C941C2E3802781AB783A
:1045A000002B01D0002003E0FFF76EFF1128F9D0A7
:1045B0006B7801336B70F8BD5829002008B5094BA2
:1045C00000205A7882420CD09B78834209D1FFF7B1
:1045D0005BFF002805D0031C113B5A1E93415B4230
:1045E000184008BD58290020F0B54D4987B08B7898
:1045F0000C1C002B00D190E04A4D00232A788B70D0
:10460000082A06D1022801D12B7067E0464A1370B0
:1046100064E0022802D003286AD07EE00D781420DE
:1046200068430495414D08182E88011D0136007914
:10463000B6B2B4462E80009002280AD16746BE0268
:1046400048880196019FF517C60F87426E4105966F
:1046500008E00098052804D1D51F6E4275410593E6
:1046600001E005931D1C009B042B0AD1D31F584267
:10467000434148886746BE02864205DB50424241BC
:1046800003E000231A1C00E00022002D07D1002BBC
:1046900005D1002A03D10598012318421ED0214AD2
:1046A000224D002313702B806378013B6370049BC1
:1046B0000133DBB2092B01D9049B093B0020237095
:1046C000FFF72CFE049E142373430022E3180120FD
:1046D0001A71DA80D8601A615A611A81FFF76EFF89
:1046E00000281AD02378142159436418211D12E0A0
:1046F0000B7814245C430C19043463780D200133C7
:10470000DBB26370032B05D0FFF7BEFE002804D098
:10471000112802D0211CFFF701FE07B0F0BDC046F2
:10472000582900203D2A00203C2A00203E2A002053
:10473000F8B51D4A1D4E0023138033707370B3709B
:104740001A1CB3180024012514321C71DC80DD60B2
:104750001C615C611C81C82AF3D1154B80271C8029
:10476000FFF7C6FD7F053A69831E90B25843114B8F
:1047700008221860104B1C601C819C815C810F4BCF
:104780001A70FFF7B5FD3A693969431E90B2584374
:1047900089B202F077FDFFF7BFFDA04202D1084BBE
:1047A000B5701D70F8BDC0463E2A00205829002073
:1047B000342A0020382A0020242A00203D2A002004
:1047C0003C2A0020F0B5394B85B01B78051C0291BE
:1047D0000820002B68D0002D65D0002963D0286800
:1047E000002860D0802464052269AB8892B293428D
:1047F00001D9072058E00F2BFBD9EF88002FF8D004
:104800005F432B4E316801917F18FFF771FD2269DC
:10481000431E90B258438742EBD8AE88EF88321CD3
:104820007A43236903929BB29A4207DD2069311CC7
:1048300080B202F06BFD89B20029DAD10321314048
:104840008C46D6D11B4B04201B88012B2CD0029800
:104850000199194C1A01416003602D68A01841604C
:10486000134915510681478103980E6861468025DA
:104870006D052F690131BFB289B2B84203D92F69E2
:10488000BFB2C01B00E000202D69ADB27519002831
:1048900001D02E1CEBE7A218054E9181054A013389
:1048A0003560138000E00E2005B0F0BD3C2A0020EA
:1048B000382A0020342A0020242A0020114B30B549
:1048C0001C780823002C1AD0002815D0002A13D0F9
:1048D0000368002B12D10C4C2568002D0ED02589C1
:1048E0004068694309186089454360682D18A942EA
:1048F00004D21360516002E00E2300E00723181C6D
:1049000030BDC0463C2A0020242A0020F0B5141CEB
:104910001C4A051C127885B00F1C0820002A2ED0D6
:1049200000292BD0002D29D029680720002926D165
:10493000154E3268002A22D0696803913289718944
:10494000766851438C4603996644B14217D2002CD5
:1049500015D0944213D8E618964210DC032210209A
:1049600017420CD113420AD1114208D10093291CDD
:104970003A1C231C0220FFF7F5FD00E00E2005B0D5
:10498000F0BDC0463C2A0020242A0020F0B5141CAB
:104990001C4A051C127885B00F1C0820002A2ED056
:1049A00000292BD0002D29D029680720002926D1E5
:1049B000154E3268002A22D06968039132897189C4
:1049C000766851438C4603996644B14217D2002C55
:1049D00015D0944213D8E618964210DC032210201A
:1049E00017420CD113420AD1114208D10093291C5D
:1049F0003A1C231C0520FFF7B5FD00E00E2005B092
:104A0000F0BDC0463C2A0020242A0020F0B5161C28
:104A1000204A85B0127802900D1C0824002A36D056
:104A200000292FD000282DD00C68002C2CD11A4F33
:104A30003A68002A28D04A687889398948438446E8
:104A40007868844462451FD2002E1DD08E421BD848
:104A5000F018884218DC02980321084216D10B4254
:104A600014D11140039111D19918321C05F0C9FBE2
:104A70002A6800961301FE58281C0321039A029B02
:104A8000B04704E00E2402E0072400E01024201CBC
:104A900005B0F0BD3C2A0020242A0020154B73B538
:104AA0001B78041C0D1C0820002B22D0002C1FD0CA
:104AB00022680720002A1CD10F4A1368002B18D047
:104AC00056681189528963684A439219934210D2F9
